{
  "contractName": "SChainDapp",
  "abi": [
    {
      "inputs": [],
      "stateMutability": "nonpayable",
      "type": "constructor"
    },
    {
      "anonymous": false,
      "inputs": [
        {
          "indexed": false,
          "internalType": "address",
          "name": "sender",
          "type": "address"
        },
        {
          "indexed": false,
          "internalType": "string",
          "name": "hash",
          "type": "string"
        }
      ],
      "name": "Attest",
      "type": "event"
    },
    {
      "anonymous": false,
      "inputs": [
        {
          "indexed": false,
          "internalType": "uint256",
          "name": "prodId",
          "type": "uint256"
        },
        {
          "indexed": false,
          "internalType": "string",
          "name": "prodName",
          "type": "string"
        },
        {
          "indexed": false,
          "internalType": "string",
          "name": "prodInfo",
          "type": "string"
        },
        {
          "indexed": false,
          "internalType": "uint256",
          "name": "prodValue",
          "type": "uint256"
        },
        {
          "indexed": false,
          "internalType": "string",
          "name": "prodGpgga",
          "type": "string"
        },
        {
          "indexed": false,
          "internalType": "string",
          "name": "prodDest",
          "type": "string"
        }
      ],
      "name": "LogAddProduct",
      "type": "event"
    },
    {
      "anonymous": false,
      "inputs": [
        {
          "indexed": false,
          "internalType": "bytes",
          "name": "data",
          "type": "bytes"
        }
      ],
      "name": "LogMsgData",
      "type": "event"
    },
    {
      "anonymous": false,
      "inputs": [
        {
          "indexed": true,
          "internalType": "address",
          "name": "previousOwner",
          "type": "address"
        },
        {
          "indexed": true,
          "internalType": "address",
          "name": "newOwner",
          "type": "address"
        }
      ],
      "name": "OwnershipTransferred",
      "type": "event"
    },
    {
      "inputs": [
        {
          "internalType": "address",
          "name": "",
          "type": "address"
        }
      ],
      "name": "attestations",
      "outputs": [
        {
          "internalType": "string",
          "name": "",
          "type": "string"
        }
      ],
      "stateMutability": "view",
      "type": "function"
    },
    {
      "inputs": [
        {
          "internalType": "address",
          "name": "",
          "type": "address"
        }
      ],
      "name": "isProductOwners",
      "outputs": [
        {
          "internalType": "string",
          "name": "",
          "type": "string"
        }
      ],
      "stateMutability": "view",
      "type": "function"
    },
    {
      "inputs": [
        {
          "internalType": "address",
          "name": "",
          "type": "address"
        }
      ],
      "name": "isSCadmins",
      "outputs": [
        {
          "internalType": "bool",
          "name": "",
          "type": "bool"
        }
      ],
      "stateMutability": "view",
      "type": "function"
    },
    {
      "inputs": [],
      "name": "owner",
      "outputs": [
        {
          "internalType": "address",
          "name": "",
          "type": "address"
        }
      ],
      "stateMutability": "view",
      "type": "function"
    },
    {
      "inputs": [],
      "name": "productIdCounter",
      "outputs": [
        {
          "internalType": "uint256",
          "name": "",
          "type": "uint256"
        }
      ],
      "stateMutability": "view",
      "type": "function"
    },
    {
      "inputs": [
        {
          "internalType": "uint256",
          "name": "",
          "type": "uint256"
        }
      ],
      "name": "products",
      "outputs": [
        {
          "internalType": "uint256",
          "name": "productId",
          "type": "uint256"
        },
        {
          "internalType": "string",
          "name": "productName",
          "type": "string"
        },
        {
          "internalType": "string",
          "name": "productInfo",
          "type": "string"
        },
        {
          "internalType": "uint256",
          "name": "productValue",
          "type": "uint256"
        },
        {
          "internalType": "string",
          "name": "productGpgga",
          "type": "string"
        },
        {
          "internalType": "string",
          "name": "productDest",
          "type": "string"
        },
        {
          "internalType": "address payable",
          "name": "productProducer",
          "type": "address"
        },
        {
          "internalType": "address",
          "name": "productCustomer",
          "type": "address"
        },
        {
          "internalType": "address",
          "name": "productSeller",
          "type": "address"
        },
        {
          "internalType": "address",
          "name": "productDistributor",
          "type": "address"
        }
      ],
      "stateMutability": "view",
      "type": "function"
    },
    {
      "inputs": [],
      "name": "renounceOwnership",
      "outputs": [],
      "stateMutability": "nonpayable",
      "type": "function"
    },
    {
      "inputs": [],
      "name": "scAdmin",
      "outputs": [
        {
          "internalType": "address",
          "name": "",
          "type": "address"
        }
      ],
      "stateMutability": "view",
      "type": "function"
    },
    {
      "inputs": [
        {
          "internalType": "address",
          "name": "newOwner",
          "type": "address"
        }
      ],
      "name": "transferOwnership",
      "outputs": [],
      "stateMutability": "nonpayable",
      "type": "function"
    },
    {
      "stateMutability": "payable",
      "type": "receive"
    },
    {
      "inputs": [],
      "name": "kill",
      "outputs": [],
      "stateMutability": "nonpayable",
      "type": "function"
    },
    {
      "inputs": [
        {
          "internalType": "string",
          "name": "prodName",
          "type": "string"
        },
        {
          "internalType": "string",
          "name": "prodInfo",
          "type": "string"
        },
        {
          "internalType": "uint256",
          "name": "prodValue",
          "type": "uint256"
        },
        {
          "internalType": "string",
          "name": "prodGpgga",
          "type": "string"
        },
        {
          "internalType": "string",
          "name": "prodDest",
          "type": "string"
        }
      ],
      "name": "addProduct",
      "outputs": [],
      "stateMutability": "nonpayable",
      "type": "function"
    },
    {
      "inputs": [
        {
          "internalType": "uint256",
          "name": "_prodId",
          "type": "uint256"
        }
      ],
      "name": "getProductById",
      "outputs": [
        {
          "internalType": "uint256",
          "name": "",
          "type": "uint256"
        },
        {
          "internalType": "string",
          "name": "",
          "type": "string"
        },
        {
          "internalType": "string",
          "name": "",
          "type": "string"
        },
        {
          "internalType": "uint256",
          "name": "",
          "type": "uint256"
        },
        {
          "internalType": "address",
          "name": "",
          "type": "address"
        }
      ],
      "stateMutability": "view",
      "type": "function"
    },
    {
      "inputs": [
        {
          "internalType": "string",
          "name": "hash",
          "type": "string"
        }
      ],
      "name": "attest",
      "outputs": [],
      "stateMutability": "nonpayable",
      "type": "function"
    }
  ],
  "bytecode": "0x608060405260006001553480156200001657600080fd5b506000620000296200023a60201b60201c565b9050806000806101000a81548173ffffffffffffffffffffffffffffffffffffffff021916908373ffffffffffffffffffffffffffffffffffffffff1602179055508073ffffffffffffffffffffffffffffffffffffffff16600073ffffffffffffffffffffffffffffffffffffffff167f8be0079c531659141344cd1fd0a4f28419497f9722a3daafe3b4186f6b6457e060405160405180910390a350620000d76200024260201b60201c565b600260006101000a81548173ffffffffffffffffffffffffffffffffffffffff021916908373ffffffffffffffffffffffffffffffffffffffff1602179055506200014a600260009054906101000a900473ffffffffffffffffffffffffffffffffffffffff166200026b60201b60201c565b620002346040518060400160405280600581526020017f706e616d650000000000000000000000000000000000000000000000000000008152506040518060400160405280600581526020017f70696e666f00000000000000000000000000000000000000000000000000000081525060016040518060400160405280600181526020017f30000000000000000000000000000000000000000000000000000000000000008152506040518060400160405280600781526020017f756e6b6e6f776e000000000000000000000000000000000000000000000000008152506200039860201b60201c565b620009b6565b600033905090565b60008060009054906101000a900473ffffffffffffffffffffffffffffffffffffffff16905090565b6200027b6200023a60201b60201c565b73ffffffffffffffffffffffffffffffffffffffff166000809054906101000a900473ffffffffffffffffffffffffffffffffffffffff1673ffffffffffffffffffffffffffffffffffffffff16146200033d576040517f08c379a00000000000000000000000000000000000000000000000000000000081526004018080602001828103825260208152602001807f4f776e61626c653a2063616c6c6572206973206e6f7420746865206f776e657281525060200191505060405180910390fd5b6001600360008373ffffffffffffffffffffffffffffffffffffffff1673ffffffffffffffffffffffffffffffffffffffff16815260200190815260200160002060006101000a81548160ff02191690831515021790555050565b620003a86200023a60201b60201c565b600360008273ffffffffffffffffffffffffffffffffffffffff1673ffffffffffffffffffffffffffffffffffffffff16815260200190815260200160002060009054906101000a900460ff166200044c576040517f08c379a000000000000000000000000000000000000000000000000000000000815260040180806020018281038252602781526020018062002a816027913960400191505060405180910390fd5b600160008154809291906001019190505550604051806101400160405280600154815260200187815260200186815260200160009550858152602001604051806020016040528060008152509450848152602001604051806020016040528060008152509350838152602001620004c86200023a60201b60201c565b73ffffffffffffffffffffffffffffffffffffffff168152602001600073ffffffffffffffffffffffffffffffffffffffff168152602001600073ffffffffffffffffffffffffffffffffffffffff168152602001600073ffffffffffffffffffffffffffffffffffffffff168152506006600060015481526020019081526020016000206000820151816000015560208201518160010190805190602001906200057592919062000907565b5060408201518160020190805190602001906200059492919062000907565b50606082015181600301556080820151816004019080519060200190620005bd92919062000907565b5060a0820151816005019080519060200190620005dc92919062000907565b5060c08201518160060160006101000a81548173ffffffffffffffffffffffffffffffffffffffff021916908373ffffffffffffffffffffffffffffffffffffffff16021790555060e08201518160070160006101000a81548173ffffffffffffffffffffffffffffffffffffffff021916908373ffffffffffffffffffffffffffffffffffffffff1602179055506101008201518160080160006101000a81548173ffffffffffffffffffffffffffffffffffffffff021916908373ffffffffffffffffffffffffffffffffffffffff1602179055506101208201518160090160006101000a81548173ffffffffffffffffffffffffffffffffffffffff021916908373ffffffffffffffffffffffffffffffffffffffff1602179055509050507f61c61a91c56a8368e629437b78e753946e3e080efca30c683029265c976761326001548787878787604051808781526020018060200180602001868152602001806020018060200185810385528a818151815260200191508051906020019080838360005b838110156200078157808201518184015260208101905062000764565b50505050905090810190601f168015620007af5780820380516001836020036101000a031916815260200191505b50858103845289818151815260200191508051906020019080838360005b83811015620007ea578082015181840152602081019050620007cd565b50505050905090810190601f168015620008185780820380516001836020036101000a031916815260200191505b50858103835287818151815260200191508051906020019080838360005b838110156200085357808201518184015260208101905062000836565b50505050905090810190601f168015620008815780820380516001836020036101000a031916815260200191505b50858103825286818151815260200191508051906020019080838360005b83811015620008bc5780820151818401526020810190506200089f565b50505050905090810190601f168015620008ea5780820380516001836020036101000a031916815260200191505b509a505050505050505050505060405180910390a1505050505050565b828054600181600116156101000203166002900490600052602060002090601f016020900481019282601f106200094a57805160ff19168380011785556200097b565b828001600101855582156200097b579182015b828111156200097a5782518255916020019190600101906200095d565b5b5090506200098a91906200098e565b5090565b620009b391905b80821115620009af57600081600090555060010162000995565b5090565b90565b6120bb80620009c66000396000f3fe6080604052600436106100c65760003560e01c806341c0e1b51161007f5780637acc0b20116100595780637acc0b20146108185780638da5cb5b14610aea578063f2fde38b14610b41578063fd15b11d14610b9257610170565b806341c0e1b51461079357806347688f6f146107aa578063715018a61461080157610170565b806306431afe146101755780631337638a1461023d57806320357048146104d45780632af1ff0d1461059e578063342ae8c6146106075780633f70c2b41461063257610170565b36610170577f84a7e86a5530dbab0d699a72cd56748c29585a63e9b2b8281b9acdf52e9d161e6100f4610c5c565b6040518080602001828103825283818151815260200191508051906020019080838360005b83811015610134578082015181840152602081019050610119565b50505050905090810190601f1680156101615780820380516001836020036101000a031916815260200191505b509250505060405180910390a1005b600080fd5b34801561018157600080fd5b5061023b6004803603602081101561019857600080fd5b81019080803590602001906401000000008111156101b557600080fd5b8201836020820111156101c757600080fd5b803590602001918460018302840111640100000000831117156101e957600080fd5b91908080601f016020809104026020016040519081016040528093929190818152602001838380828437600081840152601f19601f820116905080830192505050505050509192919290505050610ca9565b005b34801561024957600080fd5b506104d2600480360360a081101561026057600080fd5b810190808035906020019064010000000081111561027d57600080fd5b82018360208201111561028f57600080fd5b803590602001918460018302840111640100000000831117156102b157600080fd5b91908080601f016020809104026020016040519081016040528093929190818152602001838380828437600081840152601f19601f8201169050808301925050505050505091929192908035906020019064010000000081111561031457600080fd5b82018360208201111561032657600080fd5b8035906020019184600183028401116401000000008311171561034857600080fd5b91908080601f016020809104026020016040519081016040528093929190818152602001838380828437600081840152601f19601f82011690508083019250505050505050919291929080359060200190929190803590602001906401000000008111156103b557600080fd5b8201836020820111156103c757600080fd5b803590602001918460018302840111640100000000831117156103e957600080fd5b91908080601f016020809104026020016040519081016040528093929190818152602001838380828437600081840152601f19601f8201169050808301925050505050505091929192908035906020019064010000000081111561044c57600080fd5b82018360208201111561045e57600080fd5b8035906020019184600183028401116401000000008311171561048057600080fd5b91908080601f016020809104026020016040519081016040528093929190818152602001838380828437600081840152601f19601f820116905080830192505050505050509192919290505050610dd0565b005b3480156104e057600080fd5b50610523600480360360208110156104f757600080fd5b81019080803573ffffffffffffffffffffffffffffffffffffffff169060200190929190505050611319565b6040518080602001828103825283818151815260200191508051906020019080838360005b83811015610563578082015181840152602081019050610548565b50505050905090810190601f1680156105905780820380516001836020036101000a031916815260200191505b509250505060405180910390f35b3480156105aa57600080fd5b506105ed600480360360208110156105c157600080fd5b81019080803573ffffffffffffffffffffffffffffffffffffffff1690602001909291905050506113c9565b604051808215151515815260200191505060405180910390f35b34801561061357600080fd5b5061061c6113e9565b6040518082815260200191505060405180910390f35b34801561063e57600080fd5b5061066b6004803603602081101561065557600080fd5b81019080803590602001909291905050506113ef565b6040518086815260200180602001806020018581526020018473ffffffffffffffffffffffffffffffffffffffff1673ffffffffffffffffffffffffffffffffffffffff168152602001838103835287818151815260200191508051906020019080838360005b838110156106ed5780820151818401526020810190506106d2565b50505050905090810190601f16801561071a5780820380516001836020036101000a031916815260200191505b50838103825286818151815260200191508051906020019080838360005b83811015610753578082015181840152602081019050610738565b50505050905090810190601f1680156107805780820380516001836020036101000a031916815260200191505b5097505050505050505060405180910390f35b34801561079f57600080fd5b506107a861165a565b005b3480156107b657600080fd5b506107bf611743565b604051808273ffffffffffffffffffffffffffffffffffffffff1673ffffffffffffffffffffffffffffffffffffffff16815260200191505060405180910390f35b34801561080d57600080fd5b50610816611769565b005b34801561082457600080fd5b506108516004803603602081101561083b57600080fd5b81019080803590602001909291905050506118f1565b604051808b815260200180602001806020018a815260200180602001806020018973ffffffffffffffffffffffffffffffffffffffff1673ffffffffffffffffffffffffffffffffffffffff1681526020018873ffffffffffffffffffffffffffffffffffffffff1673ffffffffffffffffffffffffffffffffffffffff1681526020018773ffffffffffffffffffffffffffffffffffffffff1673ffffffffffffffffffffffffffffffffffffffff1681526020018673ffffffffffffffffffffffffffffffffffffffff1673ffffffffffffffffffffffffffffffffffffffff16815260200185810385528e818151815260200191508051906020019080838360005b83811015610971578082015181840152602081019050610956565b50505050905090810190601f16801561099e5780820380516001836020036101000a031916815260200191505b5085810384528d818151815260200191508051906020019080838360005b838110156109d75780820151818401526020810190506109bc565b50505050905090810190601f168015610a045780820380516001836020036101000a031916815260200191505b5085810383528b818151815260200191508051906020019080838360005b83811015610a3d578082015181840152602081019050610a22565b50505050905090810190601f168015610a6a5780820380516001836020036101000a031916815260200191505b5085810382528a818151815260200191508051906020019080838360005b83811015610aa3578082015181840152602081019050610a88565b50505050905090810190601f168015610ad05780820380516001836020036101000a031916815260200191505b509e50505050505050505050505050505060405180910390f35b348015610af657600080fd5b50610aff611c25565b604051808273ffffffffffffffffffffffffffffffffffffffff1673ffffffffffffffffffffffffffffffffffffffff16815260200191505060405180910390f35b348015610b4d57600080fd5b50610b9060048036036020811015610b6457600080fd5b81019080803573ffffffffffffffffffffffffffffffffffffffff169060200190929190505050611c4e565b005b348015610b9e57600080fd5b50610be160048036036020811015610bb557600080fd5b81019080803573ffffffffffffffffffffffffffffffffffffffff169060200190929190505050611e5b565b6040518080602001828103825283818151815260200191508051906020019080838360005b83811015610c21578082015181840152602081019050610c06565b50505050905090810190601f168015610c4e5780820380516001836020036101000a031916815260200191505b509250505060405180910390f35b60606000368080601f016020809104026020016040519081016040528093929190818152602001838380828437600081840152601f19601f82011690508083019250505050505050905090565b7f3bcc68f1dca369aa1b98ef559db7b5f17c6b9bcd4a0c36554271ee5be7a9f18c3382604051808373ffffffffffffffffffffffffffffffffffffffff1673ffffffffffffffffffffffffffffffffffffffff16815260200180602001828103825283818151815260200191508051906020019080838360005b83811015610d3e578082015181840152602081019050610d23565b50505050905090810190601f168015610d6b5780820380516001836020036101000a031916815260200191505b50935050505060405180910390a180600560003373ffffffffffffffffffffffffffffffffffffffff1673ffffffffffffffffffffffffffffffffffffffff1681526020019081526020016000209080519060200190610dcc929190611f13565b5050565b610dd8611f0b565b600360008273ffffffffffffffffffffffffffffffffffffffff1673ffffffffffffffffffffffffffffffffffffffff16815260200190815260200160002060009054906101000a900460ff16610e7a576040517f08c379a000000000000000000000000000000000000000000000000000000000815260040180806020018281038252602781526020018061205f6027913960400191505060405180910390fd5b600160008154809291906001019190505550604051806101400160405280600154815260200187815260200186815260200160009550858152602001604051806020016040528060008152509450848152602001604051806020016040528060008152509350838152602001610eee611f0b565b73ffffffffffffffffffffffffffffffffffffffff168152602001600073ffffffffffffffffffffffffffffffffffffffff168152602001600073ffffffffffffffffffffffffffffffffffffffff168152602001600073ffffffffffffffffffffffffffffffffffffffff16815250600660006001548152602001908152602001600020600082015181600001556020820151816001019080519060200190610f99929190611f93565b506040820151816002019080519060200190610fb6929190611f93565b50606082015181600301556080820151816004019080519060200190610fdd929190611f93565b5060a0820151816005019080519060200190610ffa929190611f93565b5060c08201518160060160006101000a81548173ffffffffffffffffffffffffffffffffffffffff021916908373ffffffffffffffffffffffffffffffffffffffff16021790555060e08201518160070160006101000a81548173ffffffffffffffffffffffffffffffffffffffff021916908373ffffffffffffffffffffffffffffffffffffffff1602179055506101008201518160080160006101000a81548173ffffffffffffffffffffffffffffffffffffffff021916908373ffffffffffffffffffffffffffffffffffffffff1602179055506101208201518160090160006101000a81548173ffffffffffffffffffffffffffffffffffffffff021916908373ffffffffffffffffffffffffffffffffffffffff1602179055509050507f61c61a91c56a8368e629437b78e753946e3e080efca30c683029265c976761326001548787878787604051808781526020018060200180602001868152602001806020018060200185810385528a818151815260200191508051906020019080838360005b8381101561119d578082015181840152602081019050611182565b50505050905090810190601f1680156111ca5780820380516001836020036101000a031916815260200191505b50858103845289818151815260200191508051906020019080838360005b838110156112035780820151818401526020810190506111e8565b50505050905090810190601f1680156112305780820380516001836020036101000a031916815260200191505b50858103835287818151815260200191508051906020019080838360005b8381101561126957808201518184015260208101905061124e565b50505050905090810190601f1680156112965780820380516001836020036101000a031916815260200191505b50858103825286818151815260200191508051906020019080838360005b838110156112cf5780820151818401526020810190506112b4565b50505050905090810190601f1680156112fc5780820380516001836020036101000a031916815260200191505b509a505050505050505050505060405180910390a1505050505050565b60056020528060005260406000206000915090508054600181600116156101000203166002900480601f0160208091040260200160405190810160405280929190818152602001828054600181600116156101000203166002900480156113c15780601f10611396576101008083540402835291602001916113c1565b820191906000526020600020905b8154815290600101906020018083116113a457829003601f168201915b505050505081565b60036020528060005260406000206000915054906101000a900460ff1681565b60015481565b600060608060008060008611801561140957506001548611155b61147b576040517f08c379a000000000000000000000000000000000000000000000000000000000815260040180806020018281038252601b8152602001807f5468652070726f64756374204964206973206e6f74207661696c64000000000081525060200191505060405180910390fd5b60066000878152602001908152602001600020600001546006600088815260200190815260200160002060010160066000898152602001908152602001600020600201600660008a815260200190815260200160002060030154600660008b815260200190815260200160002060060160009054906101000a900473ffffffffffffffffffffffffffffffffffffffff16838054600181600116156101000203166002900480601f0160208091040260200160405190810160405280929190818152602001828054600181600116156101000203166002900480156115a15780601f10611576576101008083540402835291602001916115a1565b820191906000526020600020905b81548152906001019060200180831161158457829003601f168201915b50505050509350828054600181600116156101000203166002900480601f01602080910402602001604051908101604052809291908181526020018280546001816001161561010002031660029004801561163d5780601f106116125761010080835404028352916020019161163d565b820191906000526020600020905b81548152906001019060200180831161162057829003601f168201915b505050505092508090509450945094509450945091939590929450565b611662611f0b565b73ffffffffffffffffffffffffffffffffffffffff166000809054906101000a900473ffffffffffffffffffffffffffffffffffffffff1673ffffffffffffffffffffffffffffffffffffffff1614611723576040517f08c379a00000000000000000000000000000000000000000000000000000000081526004018080602001828103825260208152602001807f4f776e61626c653a2063616c6c6572206973206e6f7420746865206f776e657281525060200191505060405180910390fd5b61172b611f0b565b73ffffffffffffffffffffffffffffffffffffffff16ff5b600260009054906101000a900473ffffffffffffffffffffffffffffffffffffffff1681565b611771611f0b565b73ffffffffffffffffffffffffffffffffffffffff166000809054906101000a900473ffffffffffffffffffffffffffffffffffffffff1673ffffffffffffffffffffffffffffffffffffffff1614611832576040517f08c379a00000000000000000000000000000000000000000000000000000000081526004018080602001828103825260208152602001807f4f776e61626c653a2063616c6c6572206973206e6f7420746865206f776e657281525060200191505060405180910390fd5b600073ffffffffffffffffffffffffffffffffffffffff166000809054906101000a900473ffffffffffffffffffffffffffffffffffffffff1673ffffffffffffffffffffffffffffffffffffffff167f8be0079c531659141344cd1fd0a4f28419497f9722a3daafe3b4186f6b6457e060405160405180910390a360008060006101000a81548173ffffffffffffffffffffffffffffffffffffffff021916908373ffffffffffffffffffffffffffffffffffffffff160217905550565b6006602052806000526040600020600091509050806000015490806001018054600181600116156101000203166002900480601f0160208091040260200160405190810160405280929190818152602001828054600181600116156101000203166002900480156119a35780601f10611978576101008083540402835291602001916119a3565b820191906000526020600020905b81548152906001019060200180831161198657829003601f168201915b505050505090806002018054600181600116156101000203166002900480601f016020809104026020016040519081016040528092919081815260200182805460018160011615610100020316600290048015611a415780601f10611a1657610100808354040283529160200191611a41565b820191906000526020600020905b815481529060010190602001808311611a2457829003601f168201915b505050505090806003015490806004018054600181600116156101000203166002900480601f016020809104026020016040519081016040528092919081815260200182805460018160011615610100020316600290048015611ae55780601f10611aba57610100808354040283529160200191611ae5565b820191906000526020600020905b815481529060010190602001808311611ac857829003601f168201915b505050505090806005018054600181600116156101000203166002900480601f016020809104026020016040519081016040528092919081815260200182805460018160011615610100020316600290048015611b835780601f10611b5857610100808354040283529160200191611b83565b820191906000526020600020905b815481529060010190602001808311611b6657829003601f168201915b5050505050908060060160009054906101000a900473ffffffffffffffffffffffffffffffffffffffff16908060070160009054906101000a900473ffffffffffffffffffffffffffffffffffffffff16908060080160009054906101000a900473ffffffffffffffffffffffffffffffffffffffff16908060090160009054906101000a900473ffffffffffffffffffffffffffffffffffffffff1690508a565b60008060009054906101000a900473ffffffffffffffffffffffffffffffffffffffff16905090565b611c56611f0b565b73ffffffffffffffffffffffffffffffffffffffff166000809054906101000a900473ffffffffffffffffffffffffffffffffffffffff1673ffffffffffffffffffffffffffffffffffffffff1614611d17576040517f08c379a00000000000000000000000000000000000000000000000000000000081526004018080602001828103825260208152602001807f4f776e61626c653a2063616c6c6572206973206e6f7420746865206f776e657281525060200191505060405180910390fd5b600073ffffffffffffffffffffffffffffffffffffffff168173ffffffffffffffffffffffffffffffffffffffff161415611d9d576040517f08c379a00000000000000000000000000000000000000000000000000000000081526004018080602001828103825260268152602001806120396026913960400191505060405180910390fd5b8073ffffffffffffffffffffffffffffffffffffffff166000809054906101000a900473ffffffffffffffffffffffffffffffffffffffff1673ffffffffffffffffffffffffffffffffffffffff167f8be0079c531659141344cd1fd0a4f28419497f9722a3daafe3b4186f6b6457e060405160405180910390a3806000806101000a81548173ffffffffffffffffffffffffffffffffffffffff021916908373ffffffffffffffffffffffffffffffffffffffff16021790555050565b60046020528060005260406000206000915090508054600181600116156101000203166002900480601f016020809104026020016040519081016040528092919081815260200182805460018160011615610100020316600290048015611f035780601f10611ed857610100808354040283529160200191611f03565b820191906000526020600020905b815481529060010190602001808311611ee657829003601f168201915b505050505081565b600033905090565b828054600181600116156101000203166002900490600052602060002090601f016020900481019282601f10611f5457805160ff1916838001178555611f82565b82800160010185558215611f82579182015b82811115611f81578251825591602001919060010190611f66565b5b509050611f8f9190612013565b5090565b828054600181600116156101000203166002900490600052602060002090601f016020900481019282601f10611fd457805160ff1916838001178555612002565b82800160010185558215612002579182015b82811115612001578251825591602001919060010190611fe6565b5b50905061200f9190612013565b5090565b61203591905b80821115612031576000816000905550600101612019565b5090565b9056fe4f776e61626c653a206e6577206f776e657220697320746865207a65726f20616464726573734d75737420626520616e2061646d696e20746f2063616c6c20746869732066756e6374696f6e2ea26469706673582212207600517bf8eedb44df74f07940d6d385685e357c97ddc7fffeb1abc10136fd4364736f6c634300060000334d75737420626520616e2061646d696e20746f2063616c6c20746869732066756e6374696f6e2e",
  "source": "// SPDX-License-Identifier: UNLICENSED\npragma solidity >=0.6.0 <0.8.0;\n\n/// @title SupplyChain\n/// @author HackFS Supply Chain\n/// @notice Implements Decentralized Supply Chain\n\n\nimport \"./Ownable.sol\";\n\ncontract SChainDapp is Ownable {\n\n    /// @dev store the product count/id (public for getter())\n    uint public productIdCounter = 0;\n\n    address public scAdmin;\n    mapping(address => bool) public isSCadmins;\n    mapping(address => string) public isProductOwners;\n\n    mapping (address => string) public attestations;\n\n    /// @notice A Producg:\n    /// @param Product Id: @productId\n    /// @param Product Value: @productValue\n    /// @param Product Name: @productName\n    /// @param Product GPA: @productGpgga\n    /// @param Product Destination: @productDest\n    /// @param Product Producer: @productProducer\n    /// @param Product Customer: @productCustomer\n    /// @param Product Seller: @productSeller\n    /// @param Product Distributor: @productDistributor\n    struct Product {\n        uint productId;\n        string productName;\n        string productInfo;\n        uint256 productValue;\n        string productGpgga;\n        string productDest;\n        address payable productProducer;\n        address productCustomer;\n        address productSeller;\n        address productDistributor;\n    }\n \n    mapping (uint => Product) public products;\n\n    /// @notice LogMsgData should provide the MsgData\n    event LogMsgData(\n        bytes data\n    );\n\n    /// @notice LogAddProduct should provide info about the product\n    /// @param prodId the product id\n    /// @param prodName the product name\n    /// @param prodInfo the produt infi\n    /// @param prodValue the product value\n    /// @param prodGpgga the product coordinates\n    /// @param prodDest the product destination\n    event LogAddProduct(\n        uint prodId,\n        string prodName,\n        string prodInfo,\n        uint256 prodValue,\n        string prodGpgga,\n        string prodDest\n    );\n\n    /// @notice Create a modifier that throws an error if the address !isAdmin\n    /// @param _isAdmin the new admin\n    modifier onlyAdmin(address _isAdmin) {\n        require(\n            isSCadmins[_isAdmin],\n            \"Must be an admin to call this function.\"\n        );\n        _;\n    }\n\n    /// @notice Calling the Ownable constructor to insure that the address deploying this contract is \n    /// regsitered as owner and to set owner as an admin\n    constructor() \n        public\n        Ownable()\n    {\n        scAdmin = owner();      \n        addAdmin(scAdmin);\n        addProduct(\"pname\", \"pinfo\", 1, \"0\", \"unknown\");\n    }\n\n    /// @notice Payable fallback\n    receive() external payable {\n        emit LogMsgData(_msgData());\n    }\n\n    /// @notice kill the smart contract\n    function kill() public onlyOwner {\n        selfdestruct(_msgSender());\n    }\n    \n    /// @notice This function adds an MPadmin\n    /// @param _newAdmin the new admin\n    function addAdmin(address _newAdmin)\n        internal\n        virtual\n        onlyOwner\n    {  \n        isSCadmins[_newAdmin] = true;\n    }\n\n    /// @notice This function adds a Product\n    /// @dev The productId is derived from the counter\n    /// @param prodName The product name\n    /// @param prodInfo Any product info\n    /// @param prodValue The product value\n    /// @param prodGpgga The product gpa\n    /// @param prodDest the product dest\n    function addProduct(\n        string memory prodName, \n        string memory prodInfo,\n        uint256 prodValue,\n        string memory prodGpgga,\n        string memory prodDest\n    )\n        public\n        onlyAdmin(_msgSender())\n \n    {\n        productIdCounter++;\n\n        /// @notice update via productId\n        products[productIdCounter] = Product(\n            productIdCounter,\n            prodName,\n            prodInfo,\n            prodValue = 0,\n            prodGpgga = \"\",\n            prodDest = \"\",\n            _msgSender(),\n            address(0),\n            address(0),\n            address(0)\n        );\n\n        emit LogAddProduct(productIdCounter, prodName, prodInfo, prodValue, prodGpgga, prodDest); \n    }\n\n    /// @notice Returns Product\n    /// @return product's Id\n    /// @return product's name\n    /// @return product's info\n    /// @return product's value\n    /// @return product's producer\n    function getProductById(uint _prodId)\n        public\n        view\n        returns (\n            uint,\n            string memory,\n            string memory,\n            uint256,\n            address \n        )\n    {\n          require(\n              _prodId > 0 && _prodId <= productIdCounter,\n              \"The product Id is not vaild\"\n          );\n\n          return (\n              products[_prodId].productId,\n              products[_prodId].productName,\n              products[_prodId].productInfo,\n              products[_prodId].productValue,\n              products[_prodId].productProducer\n        );\n    }\n\n    function attest(string memory hash) public {\n       // console.log(msg.sender,\"attests to\",hash);\n       emit Attest(msg.sender,hash);\n       attestations[msg.sender] = hash;\n    }\n  \n    event Attest(address sender, string hash);\n\n}\n",
  "sourcePath": "/Users/kokom/DEV/HackFS/hkfsschain/contracts/SChainDapp.sol",
  "compiler": {
    "name": "solc",
    "version": "0.6.0+commit.26b70077.Emscripten.clang"
  },
  "schemaVersion": "3.2.3",
  "updatedAt": "2020-08-06T05:09:29.131Z",
  "devdoc": {
    "methods": {
      "addProduct(string,string,uint256,string,string)": {
        "details": "The productId is derived from the counter",
        "params": {
          "prodDest": "the product dest",
          "prodGpgga": "The product gpa",
          "prodInfo": "Any product info",
          "prodName": "The product name",
          "prodValue": "The product value"
        }
      },
      "owner()": {
        "details": "Returns the address of the current owner."
      },
      "renounceOwnership()": {
        "details": "Leaves the contract without owner. It will not be possible to call `onlyOwner` functions anymore. Can only be called by the current owner.     * NOTE: Renouncing ownership will leave the contract without an owner, thereby removing any functionality that is only available to the owner."
      },
      "transferOwnership(address)": {
        "details": "Transfers ownership of the contract to a new account (`newOwner`). Can only be called by the current owner."
      }
    }
  },
  "userdoc": {
    "methods": {
      "addProduct(string,string,uint256,string,string)": {
        "notice": "This function adds a Product"
      },
      "constructor": "Calling the Ownable constructor to insure that the address deploying this contract is  regsitered as owner and to set owner as an admin",
      "getProductById(uint256)": {
        "notice": "Returns Product"
      },
      "kill()": {
        "notice": "kill the smart contract"
      }
    }
  }
}